S102017083000056
17S10R3823201708280122820170830F2307 00000080PKT       
17S10R3823201708280125720170830F2307 00000050PKT       
17S10R3823201708280126420170830F2307 00000030PKT       
17S10R3823201708280131120170830F2307 00000040PKT       
17S10R3823201708280132420170830F2307 00000040PKT       
17S10R3823201708280133120170830F2307 00000060PKT       
17S10R3823201708280134020170830F2307 00000040PKT       
17S10R3823201708280134520170830F2307 00000050PKT       
17S10R3823201708280134620170830F2307 00000100PKT       
17S10R3823201708280134720170830F2307 00000030PKT       
17S10R3823201708280137720170830F2307 00000050PKT       
17S10R3823201708280137920170830F2307 00000040PKT       
17S10R3823201708280138320170830F2307 00000010PKT       
17S10R3823201708280139720170830F2307 00000030PKT       
17S10R3823201708280141920170830F2307 00000035PKT       
17S10R3823201708280143920170830F2307 00000020PKT       
17S10R3823201708280145920170830F2307 00000070PKT       
17S10R3823201708280146520170830F2307 00000020PKT       
17S10R3823201708280146720170830F2307 00000020PKT       
17S10R3823201708280147220170830F2307 00000015PKT       
17S10R3823201708280147320170830F2307 00000035PKT       
17S10R3823201708280149320170830F2307 00000020PKT       
17S10R3823201708280149820170830F2307 00000020PKT       
17S10R3823201708280151120170830F2307 00000040PKT       
17S10R3823201708280152420170830F2307 00000005PKT       
17S10R3823201708280153420170830F2307 00000010PKT       
17S10R3823201708280155120170830F2307 00000030PKT       
17S10R3823201708280155720170830F2307 00000020PKT       
17S10R3823201708280155920170830F2307 00000008PKT       
17S10R3823201708280156020170830F2307 00000060PKT       
17S10R3823201708280156120170830F2307 00000030PKT       
17S10R3823201708280156620170830F2307 00000050PKT       
17S10R3823201708280156920170830F2307 00000014PKT       
17S10R3823201708280157020170830F2307 00000080PKT       
17S10R3823201708280158120170830F2307 00000040PKT       
17S10R3823201708280158420170830F2307 00000045PKT       
17S10R3823201708280160320170830F2307 00000025PKT       
17S10R3823201708280160620170830F2307 00000030PKT       
17S10R3823201708280163220170830F2307 00000025PKT       
17S10R3823201708280163420170830F2307 00000050PKT       
17S10R3823201708280164020170830F2307 00000030PKT       
17S10R3823201708280164220170830F2307 00000025PKT       
17S10R3823201708280165320170830F2307 00000060PKT       
17S10R3823201708280165420170830F2307 00000035PKT       
17S10R3823201708280166420170830F2307 00000015PKT       
17S10R3823201708280166520170830F2307 00000040PKT       
17S10R3823201708280167020170830F2307 00000030PKT       
17S10R3823201708280167120170830F2307 00000100PKT       
17S10R3823201708280168920170830F2307 00000060PKT       
17S10R3823201708280170220170830F2307 00000050PKT       
17S10R3823201708280174120170830F2307 00000030PKT       
17S10R3823201708280175120170830F2307 00000030PKT       
17S10R3823201708280222220170830F2307 00000020PKT       
17S10R3823201708280223420170830F2307 00000040PKT       
17S10R3823201708288300220170830F2307 00000020PKT       
